:10000000BAC00000D3C00000D1C00000CFC00000C3
:10001000CDC00000CBC00000C9C00000C7C00000B8
:10002000C5C00000C3C0000068C1000087C1000057
:10003000BDC00000BBC00000B9C00000B7C00000D8
:10004000B5C00000B3C00000B1C00000AFC00000E8
:10005000ADC00000ABC00000A9C00000A7C00000F8
:10006000A5C00000A3C00000A1C000009FC0000008
:100070009DC000009BC0000099C0000097C0000018
:1000800095C0000093C0000091C000008FC0000028
:100090008DC000008BC0000089C0000087C0000038
:1000A00085C0000083C0000081C000000001000086
:1000B0005E011200020000F7002200220000190178
:1000C000450021000009010900030000F3000401BC
:1000D000030904E9000802030904DD000A0A0333E6
:1000E0000033003600300000000803620073007423
:1000F0000000000403090409022200010100C032CB
:10010000090400000103010200092111010001227C
:1001100045000705830306000105010902A1010549
:10012000091901290515002501950575018102951B
:10013000017503810305010930093116018026FF8D
:100140007F36018046FF7F751095028106093815BC
:1001500081257F3581457F750895018106C0120193
:10016000000200000020C0167E0400010102000110
:10017000000001C1020011241FBECFEFDAE0DEBF94
:10018000CDBF11E0A0E0B1E0E4E0F6E002C00590F0
:100190000D92A230B107D9F721E0A2E0B1E001C091
:1001A0001D92A330B207E1F702D02AC229CF80E81E
:1001B0008093610010926100589A85E580936900F0
:1001C0001DBA8FE08CBBC9B1C095C1702FE788E321
:1001D00091E0215080409040E1F700C00000489934
:1001E00002C00C94003F6FD085D08823E9F32FEF35
:1001F00081E29BE0215080409040E1F700C0000088
:1002000082E084BD85BD89EF87BDF894E12CD0E004
:10021000F12C87E0D82ECC24C39493E0B92E2AE3A6
:10022000A22E1C2F00E00023C1F1A99BFECFA99AAA
:1002300099B18CB3809581608923DCBACC23D9F144
:10024000C82FC17080FF39C0F394CF2DC095CC1F4B
:10025000CC27CC1F78944ED08823E9F3F894C117AB
:10026000B1F0B092E9008091EE0080FF29C080914A
:10027000E80084608093E8008091E80082FDFCCF74
:10028000DC2BED1621F0D093F100A092E8000F5F77
:10029000083039F21C2F0111C8CF8091E1008B7F0B
:1002A0008093E1008091E10082FFFCCF83B5816003
:1002B00083BD16BCBCCFC82FC170CC25F12CCACFD2
:1002C000ED2ED0E0DDCF81E08093D70080EA8093EF
:1002D000D80082E189BD09B400FEFDCF80E980939A
:1002E000D8001092E0001092020188E08093E200B2
:1002F000789408958091020108951F920F920FB68D
:100300000F9211248F938091E1001092E10083FFFE
:100310000FC01092E90081E08093EB001092EC0096
:1003200082E28093ED0088E08093F0001092020159
:100330008F910F900FBE0F901F9018951F920F92E4
:100340000FB60F9211242F933F934F935F936F93A8
:100350007F938F939F93AF93BF93EF93FF931092ED
:10036000E9008091E80083FF3BC07091F10060914B
:10037000F1002091F1008091F10030E0382B809164
:10038000F1004091F10090E0FC01F42BAF01A0914D
:10039000F100B091F10082EF8093E8006630A1F1A6
:1003A000653009F4AAC0693009F43CC0683091F0A6
:1003B0006111DAC08091E80080FFFCCF723809F447
:1003C000C9C080E08093F1001092F1008EEF80931D
:1003D000E80009C0703809F49BC0452B09F4A4C09B
:1003E00081E28093EB00FF91EF91BF91AF919F91DC
:1003F0008F917F916F915F914F913F912F910F90CE
:100400000FBE0F901F9018958CEA90E0FC0165914B
:1004100074912617370779F10796F0E08D3D9F0715
:10042000A9F7DECF7111D9CF209302018EEF80930F
:10043000E80081E020E731E08093E900A9014F5F07
:100440005F4FF90194919093EB00992309F480C0D8
:10045000FA0144914093EC003196E4912D5F3F4FB7
:10046000E093ED008F5F853039F78EE18093EA00ED
:100470001092EA00B8CFFC0132966591749146174C
:10048000570709F0C9CFFC01349645915491FC01FE
:10049000369624918A2F90E09B2B8F3F910511F087
:1004A00008F053C0821708F44EC06EEF8091E80048
:1004B000982F9570D9F382FD96CF322F2132C0F05C
:1004C00030E2FA01832F94919093F100815031969C
:1004D0008111F9CF8FEF830F90E00196480F591FDC
:1004E000231B6093E8002111E1CF3032F9F27BCF7A
:1004F0002111E7CF6093E80076CF8EEF8093E8007C
:100500008091E80080FFFCCF20682093E3006BCF50
:100510008091E80080FFFCCF809102018093F10080
:100520008EEF8093E8005FCF713A09F444C07132D6
:1005300009F056CF6B3009F053CF209300018EEFB6
:100540008093E80050CF282FB0CF8FEF90E0AACF54
:100550009A0188CF4093E9008091EB0085FB8827C2
:1005600080F91092E9002ECF862F8D7F813009F01F
:1005700034CF723009F031CF232B09F031CF4F77D0
:100580008FEF840F843008F02BCF8EEF8093E8003C
:100590004093E900633009F423CF89E18093EB00B5
:1005A00081E090E001C0880F4A95EAF78093EA0065
:1005B0001092EA0018CF613079F0633009F010CF63
:1005C0008091E80080FFFCCF809100018093F100D2
:1005D0008EEF8093E80007CF8091E80080FFFCCF8A
:1005E0001092F1001092F1001092F1001092F100BF
:1005F0001092F1001092F1008EEF8093E800F3CE9C
:04060000F894FFCF9C
:020604000100F3
:00000001FF
